:020000040000FA
:100000000C9463000C948B000C948B000C948B006C
:100010000C948B000C948B000C948B000C944A0570
:100020000C948B000C948B000C948B000C946E063B
:100030000C948B000C948B000C948B000C948B0014
:100040000C9424060C948B000C94F2050C94CC05B3
:100050000C948B000C948B000C948B000C948B00F4
:100060000C948B000C948B000000000024002700EF
:100070002A0000000008000201000003040700003D
:1000800000000000000000000000230026002900FE
:10009000010204081020408001020408102001021F
:1000A0000408102000000000250028002B00040494
:1000B0000404040404040202020202020303030310
:1000C000030302006F0711241FBECFEFD8E0DEBF8D
:1000D000CDBF11E0A0E0B1E0EAE6FAE102C0059090
:1000E0000D92AE32B107D9F722E0AEE2B1E001C025
:1000F0001D92A231B207E1F710E0C3E6D0E004C0E0
:100100002197FE010E942D0DC236D107C9F70E942A
:10011000CC070C94330D0C9400008F929F92AF92F9
:10012000BF92FF920F931F93CF93DF93F0900F0234
:100130002BE02F1508F44CC02091110208E512E0C5
:10014000021B110927FD1395000F111F000F111F2E
:1001500020911002C8E8D0E0C21BD10927FDD39539
:10016000CC0FDD1FCC0FDD1F4E010D2E000CAA0899
:10017000BB089801012E000C440B550B28193909B6
:100180004A095B09DC010E94AC0A24EB30E040E044
:1001900050E00E94820A820E931EA41EB51E8C1689
:1001A0009D062CF0E801801691060CF4E4012297DC
:1001B000CC0FDD1F2FB7F8948F2D90E0FC01EE0FD0
:1001C000FF1FE80FF91FE651FE4FD283C1832FBFF7
:1001D000DF91CF911F910F91FF90BF90AF909F90B3
:1001E0008F900895AF92BF92CF92DF92EF92FF92DD
:1001F0000F931F93CF93DF936C017B018B01040F4F
:10020000151FEB015E01AE18BF08C017D10759F0EA
:100210006991D601ED91FC910190F081E02DC6012C
:100220000995892B79F7C501DF91CF911F910F9126
:10023000FF90EF90DF90CF90BF90AF900895FC01BA
:10024000538D448D252F30E0842F90E0821B930B3B
:10025000541710F0CF96089501970895FC01918DE1
:10026000828D981761F0A28DAE0FBF2FB11D5D96E4
:100270008C91928D9F5F9F73928F90E008958FEF86
:100280009FEF0895FC01918D828D981731F0828D3A
:10029000E80FF11D858D90E008958FEF9FEF089591
:1002A000FC01918D228D892F90E0805C9F4F821BF5
:1002B00091098F73992708958DE491E00E94500170
:1002C00021E0892B09F420E0822F089580E090E05E
:1002D000892B29F00E945C0181110C940000089583
:1002E000FC01A48DA80FB92FB11DA35ABF4F2C91AB
:1002F000848D90E001968F739927848FA689B789A2
:100300002C93A089B1898C91837080648C93938D98
:10031000848D981306C00288F389E02D80818F7D3B
:1003200080830895EF92FF920F931F93CF93DF93F3
:10033000EC0181E0888F9B8D8C8D98131AC0E88921
:10034000F989808185FF15C09FB7F894EE89FF89F0
:100350006083E889F98980818370806480839FBF8E
:1003600081E090E0DF91CF911F910F91FF90EF908E
:100370000895F62E0B8D10E00F5F1F4F0F7311279E
:10038000E02E8C8D8E110CC00FB607FCFACFE889D9
:10039000F989808185FFF5CFCE010E947001F1CFF0
:1003A000EB8DEC0FFD2FF11DE35AFF4FF0829FB74D
:1003B000F8940B8FEA89FB8980818062CFCFCF933D
:1003C000DF93EC01888D8823B9F0AA89BB89E8897D
:1003D000F9898C9185FD03C0808186FD0DC00FB623
:1003E00007FCF7CF8C9185FFF2CF808185FFEDCFA1
:1003F000CE010E947001E9CFDF91CF91089590E086
:10040000FC01EE58FF4F2491FC01E057FF4F34915F
:10041000FC01E255FF4FE491EE23C9F0222339F0AD
:10042000233001F1A8F4213019F1223029F1F0E054
:10043000EE0FFF1FEC55FF4FA591B4918FB7F894C5
:10044000EC91611126C030953E233C938FBF0895F7
:100450002730A9F02830C9F0243049F78091800076
:100460008F7D03C0809180008F7780938000DFCFE5
:1004700084B58F7784BDDBCF84B58F7DFBCF809132
:10048000B0008F778093B000D2CF8091B0008F7D85
:10049000F9CF3E2BDACFCF93DF9390E0FC01E0570A
:1004A000FF4F249182559F4FFC0184918823D1F006
:1004B00090E0880F991FFC01E859FF4FA591B49176
:1004C000FC01EC55FF4FC591D49161110EC09FB74F
:1004D000F8948C91E22FE0958E238C932881E2236F
:1004E000E8839FBFDF91CF9108958FB7F894EC9187
:1004F000E22BEC938FBFF6CFCF9380910001883031
:1005000021F08F3F61F1CF910895E2ECF0E0C491CA
:10051000C7FDF9CF61E088E00E944B02CC2309F4CB
:100520008CC0C23009F0A1C08091B100887F836087
:100530008093B10089EF8093B30080E293E0A0E064
:10054000B0E08093410190934201A0934301B093A6
:10055000440180917000826080937000D4CF88E065
:1005600080930001E2ECF0E0C491CF3F61F2C13032
:1005700021F150F0C23009F43EC0C7FDC4CF61E0A4
:1005800088E00E944B02CDCF14BC15BC84B58260BC
:1005900084BD85B5816085BDE6EBF0E0E491F0E0D7
:1005A000EE0FFF1FEC55FF4F85919491E8E9F0E0C5
:1005B000E491E0934001C0E0ADCF10928000109232
:1005C000810080918100886080938100809181000A
:1005D000816080938100E6EBF0E0E491F0E0EE0FC3
:1005E000FF1FEC55FF4F85919491E8E9F0E0E4910D
:1005F000E0933F018FCF1092B0001092B100809134
:10060000B00082608093B0008091B10081608093DF
:10061000B100E6EBF0E0E491F0E0EE0FFF1FEC55E7
:10062000FF4F8591949190933E0180933D01E8E9BD
:10063000F0E0E491E0933C016DCF85B5887F836065
:1006400085BD8CE787BD80E293E0A0E0B0E08093B9
:10065000490190934A01A0934B01B0934C018091C2
:100660006E00826080936E004ECFC130F1F48091B5
:100670008100887F8160809381008FE39FE1909368
:1006800089008093880080E293E0A0E0B0E080934E
:10069000450190934601A0934701B0934801809192
:1006A0006F00826080936F002ECFC23021F0C111A5
:1006B0002ACF8FE3C7CF8FE33ECF3FB7F894809127
:1006C000340190913501A0913601B091370126B5E2
:1006D000A89B05C02F3F19F00196A11DB11D3FBF7A
:1006E000BA2FA92F982F8827BC01CD01620F711D49
:1006F000811D911D42E0660F771F881F991F4A9543
:10070000D1F708958F929F92AF92BF92CF92DF92CE
:10071000EF92FF924B015C010E945D036B017C0133
:100720000E945D036C197D098E099F09683E734024
:1007300081059105A8F321E0821A9108A108B1086A
:1007400088EEC80E83E0D81EE11CF11C81149104D0
:10075000A104B10429F7FF90EF90DF90CF90BF90F4
:10076000AF909F908F9008952FB7F89460913001CB
:100770007091310180913201909133012FBF089522
:100780000E947C0268EC70E080E090E00E948203AE
:100790000C947C0260E086E00E94FF0161E087E04B
:1007A0000C94FF0161E086E00E94FF0160E087E0B9
:1007B0000C94FF0160E082E00E94FF0161E083E0B1
:1007C0000C94FF0161E082E00E94FF0160E083E0A1
:1007D0000C94FF0160E082E00E94FF0160E083E092
:1007E0000E94FF0160E086E00E94FF0160E087E078
:1007F0000C94FF01FC0101900020E9F73197AF0153
:10080000481B590BBC018DE491E00C94F2008F92CF
:100810009F92AF92BF920F931F93CF93DF93CDB769
:10082000DEB7A1970FB6F894DEBF0FBECDBF19A2F9
:10083000423008F44AE08E010F5D1F4F842E912C48
:10084000B12CA12CA50194010E94B40AE62FB90194
:10085000CA01EA30F4F4E05DD801EE938D01232B58
:10086000242B252B79F790E080E0109719F0CD012B
:100870000E94FA03A1960FB6F894DEBF0FBECDBF5B
:10088000DF91CF911F910F91BF90AF909F908F906C
:100890000895E95CE1CF4F925F926F927F928F92C1
:1008A0009F92AF92BF92CF92DF92EF92FF920F93FF
:1008B0001F93CF936B017C01742EAC019B010E94AE
:1008C0001C0D882399F083E191E0CF911F910F9146
:1008D000FF90EF90DF90CF90BF90AF909F908F9060
:1008E0007F906F905F904F900C94FA0346015701F0
:1008F000E894B7F82FEF3FEF4FE75FE7C501B4018A
:100900000E941C0D81110DC02FEF3FEF4FE75FE7F5
:10091000C501B4010E94520B18161CF487E191E046
:10092000D4CF2FEF3FEF4FE75FE4C701B6010E943E
:10093000AA0C18161CF48BE191E0C7CF2FEF3FEF04
:100940004FE75FECC701B6010E94520B87FDF3CF62
:1009500020E030E0A901C701B6010E94520B10E06F
:1009600000E087FF0AC06DE28DE491E00E949201F1
:100970008C01F7FAF094F7F8F094C0E060E070E0D2
:1009800080E09FE37C1641F020E030E040E251E45B
:100990000E94570BCF5FF6CFA70196010E94E60A8F
:1009A0002B013C010E94C90B4B015C014AE00E94F3
:1009B00007047C01E00EF11ECC23C1F1C501B40196
:1009C0000E94F80B9B01AC01C301B2010E94E50A31
:1009D0004B015C016EE28DE491E00E949201E80E11
:1009E000F91EC15018F120E030E040E251E4C501A9
:1009F000B4010E94AF0C2B013C010E94C90B4B01BA
:100A0000B12CA12C4AE0C501B4010E940704E80EF4
:100A1000F91EC501B4010E94F80B9B01AC01C30192
:100A2000B2010E94E50A4B015C01DBCFC701CF9107
:100A30001F910F91FF90EF90DF90CF90BF90AF90FC
:100A40009F908F907F906F905F904F9008950F933D
:100A50001F93EBE9F0E06491E9EBF0E0E491F0E062
:100A6000EE0FFF1FEA57FF4F8591949100E412E4C7
:100A70002FE030E0462F0E942A076115710581059D
:100A8000910529F06F5F7F4F8F4F9F4F9F701F9190
:100A90000F9108951F920F920FB60F9211242F936A
:100AA0003F934F935F936F937F938F939F93AF93F6
:100AB000BF93EF93FF938091410190914201A091E8
:100AC0004301B0914401892B8A2B8B2BD1F190915A
:100AD0003C01E0913D01F0913E01808189278083B6
:100AE0008091410190914201A0914301B091440154
:100AF000181619061A061B069CF480914101909164
:100B00004201A0914301B09144010197A109B109AB
:100B10008093410190934201A0934301B09344011B
:100B2000FF91EF91BF91AF919F918F917F916F91C5
:100B30005F914F913F912F910F900FBE0F901F909B
:100B4000189580910001E2ECF0E0E4919FEF909322
:100B50000001E13051F030F0E23069F060E00E94D5
:100B6000FF01DECF10926E00F9CF90916F009D7F54
:100B700090936F00F3CF909170009D7F90937000E1
:100B800091E09093B0009091B100987F9460909321
:100B9000B1001092B300E2CF1F920F920FB60F92E6
:100BA00011242F933F934F935F936F937F938F9372
:100BB0009F93AF93BF93EF93FF938DE491E00E94D7
:100BC0007001FF91EF91BF91AF919F918F917F91B4
:100BD0006F915F914F913F912F910F900FBE0F90AA
:100BE0001F9018951F920F920FB60F9211242F93FA
:100BF0008F939F93EF93FF93E0915D01F0915E01DE
:100C00008081E0916301F091640182FD1BC09081BD
:100C1000809166018F5F8F7320916701821741F089
:100C2000E0916601F0E0E35BFE4F958F80936601F3
:100C3000FF91EF919F918F912F910F900FBE0F9089
:100C40001F9018958081F4CF1F920F920FB60F92CC
:100C500011242F933F938F939F93AF93BF938091D2
:100C6000300190913101A0913201B0913301309166
:100C70002F0123E0230F2D3758F50196A11DB11D3B
:100C800020932F018093300190933101A093320182
:100C9000B09333018091340190913501A0913601D8
:100CA000B09137010196A11DB11D8093340190933D
:100CB0003501A0933601B0933701BF91AF919F9159
:100CC0008F913F912F910F900FBE0F901F9018950D
:100CD00026E8230F0296A11DB11DD2CF1F920F92BD
:100CE0000FB60F9211242F933F934F935F936F93FF
:100CF0007F938F939F93AF93BF93CF93DF93EF93A4
:100D0000FF9380912E01C0910E02D0E087FF24C096
:100D1000109285001092840080912E018F5F809345
:100D20002E0180912E01082E000C990B8C179D0727
:100D300024F480912E018C30C4F180918400909134
:100D40008500049680349C4908F47AC08091840020
:100D500090918500049676C080912E01082E000C9B
:100D6000990B8C179D07C4F6E0912E018E2FEE0F84
:100D7000990BFC01EE0FFF1FE80FF91FE651FE4F24
:100D8000808186FFC9CFE0912E018E2FEE0F990B47
:100D9000FC01EE0FFF1FE80FF91FE651FE4F8081A7
:100DA00060E08F730E94FF01B7CF209184003091E3
:100DB0008500E0912E018E2FEE0F990BFC01EE0FB6
:100DC000FF1FE80FF91FE651FE4F81819281820FCC
:100DD000931F9093890080938800E0912E018E2FBD
:100DE000EE0F990BFC01EE0FFF1FE80FF91FE65104
:100DF000FE4F808186FF11C0E0912E018E2FEE0FF5
:100E0000990BFC01EE0FFF1FE80FF91FE651FE4F93
:100E1000808161E08F730E94FF01FF91EF91DF916C
:100E2000CF91BF91AF919F918F917F916F915F9182
:100E30004F913F912F910F900FBE0F901F901895DB
:100E400080E49CE990938900809388008FEF8093E1
:100E50002E01E3CFCF92DF92EF92FF920F931F9379
:100E6000E82FF92F05C0015011092109310961F15D
:100E7000908196239417B9F305C0015011092109F7
:100E8000310911F1908196239413F7CFC12CD12C05
:100E9000E12CF12C0AC08FEFC81AD80AE80AF80A28
:100EA0000C151D052E053F0579F0808186238417DA
:100EB00091F36C2D7D2D8E2D9F2D1F910F91FF9005
:100EC000EF90DF90CF90089560E070E080E090E0D8
:100ED0001F910F91FF90EF90DF90CF9008951092A7
:100EE000500110924F0188EE93E0A0E0B0E08093B3
:100EF000510190935201A0935301B093540185E0A6
:100F000091E090934E0180934D0185EC90E0909399
:100F10005A018093590184EC90E090935C01809396
:100F20005B0180EC90E090935E0180935D0181EC29
:100F300090E09093600180935F0182EC90E0909349
:100F400062018093610186EC90E09093640180934C
:100F5000630110926601109267011092680110926D
:100F6000690180910E028C3098F491E0980F909373
:100F70000E0280930F0290E0FC01EE0FFF1FE80FBE
:100F8000F91FE651FE4F88EB9BE092838183089521
:100F90008FEF80930F020895789484B5826084BDAA
:100FA00084B5816084BD85B5826085BD85B581606D
:100FB00085BD80916E00816080936E0010928100EB
:100FC00080918100826080938100809181008160A6
:100FD0008093810080918000816080938000809167
:100FE000B10084608093B1008091B00081608093F3
:100FF000B00080917A00846080937A0080917A00BA
:10100000826080937A0080917A00816080937A0078
:1010100080917A00806880937A001092C10061E02C
:1010200082E00E944B0261E083E00E944B0261E09B
:1010300086E00E944B0261E087E00E944B0260E084
:1010400084E00E944B0261E08AE00E944B0260E073
:101050008BE00E944B0280910F028C3008F051C04F
:1010600061E089E00E944B0280910F02282F30E05E
:10107000F901EE0FFF1FE20FF31FE651FE4F9081C3
:10108000907C9960908310921002109211022CE0D3
:10109000622F0E94210D829FB001112430E020E0D8
:1010A000AB01420F531FFA01EE0FFF1FE40FF51FB4
:1010B000E651FE4F908196FD16C02F5F3F4F2C30BA
:1010C000310571F781110FC01092800082E080938A
:1010D00081001092850010928400B19A80916F0077
:1010E000826080936F00E0910F028E2F90E0FC01F0
:1010F000EE0FFF1FE80FF91FE651FE4F808180645D
:10110000808386E990E00E948D00E0915D01F0917E
:101110005E0182E08083E0915901F0915A011082D2
:10112000E0915B01F0915C018FEC8083109265018E
:10113000E0916101F091620186E08083E0915F01BE
:10114000F0916001808180618083E0915F01F09186
:101150006001808188608083E0915F01F09160018F
:10116000808180688083E0915F01F09160018081DF
:101170008F7D80830E94E2030E94D20381E090E091
:1011800090933B0180933A010E94C003CBE8D1E0E9
:1011900047E0242E312C36E0832E912C85E0E82E7A
:1011A000F12C93E0C92ED12C22E0A22EB12C00E02C
:1011B00010E0E0913A01F0913B013197E930F105FF
:1011C00058F5EB51F74F0C942D0DEE0817093D091A
:1011D0008D09A609D309FA09460A570A60ED77E096
:1011E00080E090E00E9482030E94EA036CE271E0DA
:1011F00080E090E00E9482030E94DA030E94D20302
:101200000E94B4037093390160933801B0923B019E
:10121000A0923A010E94C0030115110551F20E94EB
:101220005C01882309F4BACF0E940000B4CF0E9469
:10123000B40320913801309139012901330F660838
:101240007708AB01BC014419550966097709423D8D
:1012500051406105710500F30E94EA0364EF71E0FB
:1012600080E090E00E9482030E94E2030E94D20389
:10127000D0923B01C0923A01CDCF60E08AE00E945B
:10128000FF01CE010197F1F761E08AE00E94FF01C2
:10129000CE010197F1F760E08AE00E94FF010E9411
:1012A00027050E94F80B28E23EE74CE05DE30E9430
:1012B000AF0C20E030E040E05FE30E94AF0C2B0178
:1012C0003C018FE191E00E94FA0342E0C301B201C8
:1012D0000E944B048AE291E00E94FA0364E670E007
:1012E00080E090E00E94820320E030E040EE50E495
:1012F000C301B2010E94AA0C87FFBFCF0E94EA037C
:1013000064E670E080E090E00E94820384E090E078
:1013100090933B0180933A017DCF8BE690E00E9451
:101320008D0068E572E080E090E00E9482030E94F8
:10133000DA030E94CA030E94B403709339016093D8
:101340003801F0923B01E0923A0164CF0E94B4036D
:1013500020913801309139012901330F660877084F
:10136000AB01BC014419550966097709453C594050
:101370006105710508F450CF0E94EA0368EC70E043
:1013800080E090E00E9482030E94DA030E94D20370
:101390000E94B403709339016093380190923B012D
:1013A00080923A0137CF0E94B403209138013091E6
:1013B00039012901330F66087708AB01BC014419D4
:1013C000550966097709493E53406105710508F4DE
:1013D00023CF0E94EA0364EF71E080E090E00E9476
:1013E00082030E94E2030E94D20330923B012092CA
:1013F0003A0110CF60E08AE00E94FF01CE01019720
:10140000F1F761E08AE00E94FF01CE010197F1F758
:1014100060E08AE00E94FF010E9427050E94F80B0D
:1014200028E23EE74CE05DE30E94AF0C20E030E0B4
:1014300040E05FE30E94AF0C2B013C018FE191E0A3
:101440000E94FA0342E0C301B2010E944B048AE207
:1014500091E00E94FA0364E670E080E090E00E9470
:10146000820320E030E040EE50E4C301B2010E946C
:10147000AA0C87FFBFCF0E94EA0364E670E080E019
:1014800090E00E94820388E090E042CF86E990E0FD
:101490000E948D0064EF71E080E090E00E94820382
:1014A0000E94DA030E94CA0389E090E031CF64EF22
:1014B00071E080E090E00E9482030E94EA036AEFFC
:1014C00070E080E090E00E94820388E790E00E9454
:1014D0008D0060E971E080E090E00E9482030E944C
:1014E000E2030E94D20360EB74E080E090E00E948F
:1014F00082030E94EA038AE090E090933B0180938C
:101500003A018ACE052E97FB1EF400940E94990A98
:1015100057FD07D00E94B40A07FC03D04EF40C9488
:10152000990A50954095309521953F4F4F4F5F4F09
:10153000089590958095709561957F4F8F4F9F4F3F
:1015400008950E94D60AA59F900DB49F900DA49F68
:10155000800D911D11240895B7FF0C94A10A0E94DB
:10156000A10A821B930B0895A1E21A2EAA1BBB1B92
:10157000FD010DC0AA1FBB1FEE1FFF1FA217B3075F
:10158000E407F50720F0A21BB30BE40BF50B661F75
:10159000771F881F991F1A9469F760957095809539
:1015A00090959B01AC01BD01CF010895A29FB001B0
:1015B000B39FC001A39F700D811D1124911DB29F87
:1015C000700D811D1124911D08955058BB27AA2725
:1015D0000E94FD0A0C94700C0E94620C38F00E946C
:1015E000690C20F039F49F3F19F426F40C945F0C39
:1015F0000EF4E095E7FB0C94590CE92F0E94810C46
:1016000058F3BA17620773078407950720F079F437
:10161000A6F50C94A30C0EF4E0950B2EBA2FA02D7A
:101620000B01B90190010C01CA01A0011124FF278F
:10163000591B99F0593F50F4503E68F11A16F0408A
:10164000A22F232F342F4427585FF3CF4695379589
:101650002795A795F0405395C9F77EF41F16BA0B4E
:10166000620B730B840BBAF09150A1F0FF0FBB1FFC
:10167000661F771F881FC2F70EC0BA0F621F731F45
:10168000841F48F4879577956795B795F7959E3FA2
:1016900008F0B0CF9395880F08F09927EE0F979533
:1016A000879508950E94350C08F481E008950E9402
:1016B0006B0B0C94700C0E94690C58F00E94620C29
:1016C00040F029F45F3F29F00C94590C51110C940F
:1016D000A40C0C945F0C0E94810C68F39923B1F365
:1016E000552391F3951B550BBB27AA276217730748
:1016F000840738F09F5F5F4F220F331F441FAA1FDC
:10170000A9F335D00E2E3AF0E0E832D09150504097
:10171000E695001CCAF72BD0FE2F29D0660F771F45
:10172000881FBB1F261737074807AB07B0E809F02B
:10173000BB0B802DBF01FF2793585F4F3AF09E3FB0
:10174000510578F00C94590C0C94A40C5F3FE4F311
:10175000983ED4F3869577956795B795F7959F5FF3
:10176000C9F7880F911D9695879597F90895E1E03F
:10177000660F771F881FBB1F621773078407BA079E
:1017800020F0621B730B840BBA0BEE1F88F7E095F9
:1017900008950E94890C88F09F5798F0B92F9927D7
:1017A000B751B0F0E1F0660F771F881F991F1AF04C
:1017B000BA95C9F714C0B13091F00E94A30CB1E002
:1017C00008950C94A30C672F782F8827B85F39F001
:1017D000B93FCCF3869577956795B395D9F73EF4E5
:1017E00090958095709561957F4F8F4F9F4F08958D
:1017F000E89409C097FB3EF49095809570956195AB
:101800007F4F8F4F9F4F9923A9F0F92F96E9BB2760
:101810009395F695879577956795B795F111F8CFDC
:10182000FAF4BB0F11F460FF1BC06F5F7F4F8F4F47
:101830009F4F16C0882311F096E911C0772321F03D
:101840009EE8872F762F05C0662371F096E8862FD5
:1018500070E060E02AF09A95660F771F881FDAF72C
:10186000880F9695879597F90895990F0008550F59
:10187000AA0BE0E8FEEF16161706E807F907C0F016
:1018800012161306E407F50798F0621B730B840B1E
:10189000950B39F40A2661F0232B242B252B21F4F8
:1018A00008950A2609F4A140A6958FEF811D811D98
:1018B000089597F99F6780E870E060E008959FEFD2
:1018C00080EC089500240A941616170618060906D7
:1018D000089500240A9412161306140605060895A6
:1018E000092E0394000C11F4882352F0BB0F40F42E
:1018F000BF2B11F460FF04C06F5F7F4F8F4F9F4F6E
:10190000089557FD9058440F551F59F05F3F71F0EF
:101910004795880F97FB991F61F09F3F79F0879556
:101920000895121613061406551FF2CF4695F1DFDF
:1019300008C0161617061806991FF1CF869571056F
:10194000610508940895E894BB2766277727CB01A3
:1019500097F908950E94350C08F48FEF08950E94BE
:10196000C20C0C94700C0E94620C38F00E94690C3E
:1019700020F0952311F00C94590C0C945F0C112459
:101980000C94A40C0E94810C70F3959FC1F3950FE9
:1019900050E0551F629FF001729FBB27F00DB11DF3
:1019A000639FAA27F00DB11DAA1F649F6627B00D83
:1019B000A11D661F829F2227B00DA11D621F739F6C
:1019C000B00DA11D621F839FA00D611D221F749F7A
:1019D0003327A00D611D231F849F600D211D822FC1
:1019E000762F6A2F11249F5750409AF0F1F08823E8
:1019F0004AF0EE0FFF1FBB1F661F771F881F915015
:101A00005040A9F79E3F510580F00C94590C0C945E
:101A1000A40C5F3FE4F3983ED4F3869577956795E1
:101A2000B795F795E7959F5FC1F7FE2B880F911D3E
:101A30009695879597F908950E94350C880B990B18
:101A40000895991B79E004C0991F961708F0961B1A
:101A5000881F7A95C9F780950895EE0FFF1F0590AE
:101A6000F491E02D0994F894FFCFFF00000000925C
:101A700001F2001F01DF0150012E0142016E616E73
:101A800000696E66006F76660044697374616E6308
:081A9000653A20000D0A000078
:107E0000112484B714BE81FFF0D085E080938100F7
:107E100082E08093C00088E18093C10086E0809377
:107E2000C20080E18093C4008EE0C9D0259A86E02C
:107E300020E33CEF91E0309385002093840096BBD3
:107E4000B09BFECF1D9AA8958150A9F7CC24DD24C4
:107E500088248394B5E0AB2EA1E19A2EF3E0BF2EE7
:107E6000A2D0813461F49FD0082FAFD0023811F036
:107E7000013811F484E001C083E08DD089C08234E0
:107E800011F484E103C0853419F485E0A6D080C0E4
:107E9000853579F488D0E82EFF2485D0082F10E0AE
:107EA000102F00270E291F29000F111F8ED06801E7
:107EB0006FC0863521F484E090D080E0DECF843638
:107EC00009F040C070D06FD0082F6DD080E0C81688
:107ED00080E7D80618F4F601B7BEE895C0E0D1E017
:107EE00062D089930C17E1F7F0E0CF16F0E7DF06D8
:107EF00018F0F601B7BEE89568D007B600FCFDCFD4
:107F0000A601A0E0B1E02C9130E011968C91119780
:107F100090E0982F8827822B932B1296FA010C0160
:107F200087BEE89511244E5F5F4FF1E0A038BF0790
:107F300051F7F601A7BEE89507B600FCFDCF97BE46
:107F4000E89526C08437B1F42ED02DD0F82E2BD052
:107F50003CD0F601EF2C8F010F5F1F4F84911BD097
:107F6000EA94F801C1F70894C11CD11CFA94CF0C13
:107F7000D11C0EC0853739F428D08EE10CD085E9AC
:107F80000AD08FE07ACF813511F488E018D01DD067
:107F900080E101D065CF982F8091C00085FFFCCF94
:107FA0009093C60008958091C00087FFFCCF809118
:107FB000C00084FD01C0A8958091C6000895E0E648
:107FC000F0E098E1908380830895EDDF803219F02E
:107FD00088E0F5DFFFCF84E1DECF1F93182FE3DFCA
:107FE0001150E9F7F2DF1F91089580E0E8DFEE27F6
:047FF000FF270994CA
:027FFE00040479
:00000001FF
